{"abi":[{"type":"constructor","inputs":[{"name":"_initialNumber","type":"uint256","internalType":"uint256"}],"stateMutability":"nonpayable"},{"type":"function","name":"getNumber","inputs":[],"outputs":[{"name":"","type":"uint256","internalType":"uint256"}],"stateMutability":"view"},{"type":"function","name":"number","inputs":[],"outputs":[{"name":"","type":"uint256","internalType":"uint256"}],"stateMutability":"view"},{"type":"function","name":"setNumber","inputs":[{"name":"_newNumber","type":"uint256","internalType":"uint256"}],"outputs":[],"stateMutability":"nonpayable"},{"type":"event","name":"NumberUpdated","inputs":[{"name":"newNumber","type":"uint256","indexed":false,"internalType":"uint256"}],"anonymous":false}],"bytecode":{"object":"0x6080604052348015600f57600080fd5b50604051610155380380610155833981016040819052602c916033565b600055604b565b600060208284031215604457600080fd5b5051919050565b60fc806100596000396000f3fe6080604052348015600f57600080fd5b5060043610603c5760003560e01c80633fb5c1cb1460415780638381f58a146052578063f2c9ecd814606c575b600080fd5b6050604c36600460ae565b6073565b005b605a60005481565b60405190815260200160405180910390f35b600054605a565b60008190556040518181527f939f2783f4b99373bd9b6912aff8f7316ea141b98eb02e47c8a96bdae0d654b39060200160405180910390a150565b60006020828403121560bf57600080fd5b503591905056fea2646970667358221220cb42195233f946e6952336379332229a72adcb484c82731f0b482e327f716e6864736f6c634300081a0033","linkReferences":{}},"methodIdentifiers":{"getNumber()":"f2c9ecd8","number()":"8381f58a","setNumber(uint256)":"3fb5c1cb"},"id":20}